:100000000C942A000C94B5010C94D7010C94470071
:100010000C9447000C9447000C9447000C94470044
:100020000C9447000C9447000C9447000C94470034
:100030000C9447000C9447000C9447000C94470024
:100040000C9447000C9447000C94F5010C94470065
:100050000C94470011241FBECFE5D4E0DEBFCDBF16
:1000600011E0A0E6B0E0E6EEF1E102C005900D92ED
:10007000A034B107D9F721E0A0E4B1E001C01D929E
:10008000AB34B207E1F70E948C030C94F1080C9496
:10009000000094E095BB95B3916095BB8BBB8EEF50
:1000A00085BB85E38A95F1F781E090E0089515BA64
:1000B00095B3916095BB8BBB8EEF85BB85E38A952D
:1000C000F1F7089527EF8FE191E0215080409040B3
:1000D000E1F700C0000088E30E94570020E32A9562
:1000E000F1F78FE00E94570080E38A95F1F781E0F5
:1000F0000E94570082E397E00197F1F700C00000EB
:1001000086E00E94570090E39A95F1F708958F9248
:100110009F92AF92BF92CF92DF92EF92FF92CF93D6
:10012000DF936B017C0149015A0187EC0E94570063
:1001300080E38A95F1F78CE790E00E942206A50102
:100140009401C701B6010E94CE036B017C0120E03F
:1001500030E040E05FE30E949A0518160CF043C0BF
:1001600088EC0E94570020E030E040EE50E4C701E8
:10017000B6010E943B0418163CF421C08BE290E0CB
:100180000E942206219602C0C0E0D0E0BE010D2EE2
:10019000000C880B990B0E94EA044B015C0120E0E3
:1001A00030E040E05FE3C701B6010E94CE039B014F
:1001B000AC01C501B4010E943B048823FCF220E09D
:1001C00030E040EE50E4C701B6010E949A051816CF
:1001D0000CF057C08CEC90E09F938F930E940C061C
:1001E0000F900F904EC020E030E040E05FEBC70181
:1001F000B6010E943B048823CCF586EC0E94570090
:1002000084E00E94570020E030E040EE50ECC7014F
:10021000B6010E949A0588239CF020E030E040E07F
:100220005FE3C701B6010E94CE030E94B204EB0156
:1002300005C08DE290E00E9422062196DD23CCF3DA
:1002400020E030E040EE50ECC701B6010E943B04D4
:10025000882344F480ED90E09F938F930E940C06D6
:100260000F900F9086E00E9457000BC086EC0E9412
:10027000570084ED90E09F938F930E940C060F909F
:100280000F90DF91CF91FF90EF90DF90CF90BF90D4
:10029000AF909F908F9008950E94620080914301DB
:1002A0008130B1F483E80E94570088ED90E09F937D
:1002B0008F930E940C0680EC0E94570083EE90E022
:1002C0009F938F930E940C060F900F900F900F90AA
:1002D000809143018230E9F480E80E94570082EF68
:1002E00090E09F938F930E940C0683EC0E9457002E
:1002F00082E091E09F938F930E940C0680ED0E9414
:10030000570081E390E00E9422060F900F900F901B
:100310000F90809143018330E9F480E80E945700F8
:100320008EE091E09F938F930E940C0683EC0E94D5
:10033000570082E091E09F938F930E940C0680ED1E
:100340000E94570082E390E00E9422060F900F90D7
:100350000F900F90089581B38B7F81BB8BB7806422
:100360008BBF85B7826085BF08951F920F920FB62D
:100370000F9211248F9380914201853030F4809147
:1003800042018F5F8093420102C0109242018F911F
:100390000F900FBE0F901F90189581B3877F81BB80
:1003A0008BB780688BBF85B7886085BF08951F9223
:1003B0000F920FB60F9211248F939F939091440147
:1003C00081E0891B809344019F918F910F900FBE14
:1003D0000F901F90189587B38B7F87BB8BB7806278
:1003E0008BBF84B7806484BF08951F920F920FB6AD
:1003F0000F9211248F939F9380914001909141011E
:10040000019690934101809340019F918F910F90AD
:100410000FBE0F901F90189581B3806281BB88E05A
:100420008EBD80E48FBD08952EB522602EBD9B0148
:10043000AC010E94CF039B01AC0160EC79EF80E638
:100440009AE40E94400420E030E040E85FE30E942C
:10045000CE0320E030E040E05FE30E94CF030E9443
:10046000B9047BBD6ABD08958EB58D7F8EBD08959C
:1004700087B3886087BB89E183BF089523B7216074
:1004800023BF9B01AC010E94CF039B01AC0160E044
:1004900070E081E69AE40E94400420E030E040E809
:1004A0005FE30E94CE0320E030E040E05FE30E9483
:1004B000CF0320E030E040EC5FE30E949F0520E0A6
:1004C00030E048EC52E40E949F050E94B9046CBFE2
:1004D0000895CF92DF92EF92FF920F931F93CF93E5
:1004E000DF93CDB7DEB7C254D1090FB6F894DEBFA3
:1004F0000FBECDBF0E9434028EE1EEE6F0E0DE01D9
:10050000119601900D928A95E1F788E1ECE8F0E010
:10051000DE015F9601900D928A95E1F78CE0E4EAA6
:10052000F0E0DE01D79601900D928A95E1F7E09117
:100530004201F0E0EE0FFF1FEE0FFF1F21E030E061
:100540002C0F3D1FE20FF31F668D778D80A191A1C7
:100550000E943E0210924101109240013FEA8FE357
:100560009BE0315080409040E1F700C000000091D6
:10057000400110914101E0914201F0E0EE0FFF1FB8
:1005800021E030E02C0F3D1FE20FF31F86A997A951
:10059000081B190B0E9462008AE80E945700809194
:1005A000420190E09C01220F331F220F331F820F64
:1005B000931F21E030E02C0F3D1F820F931F9F936C
:1005C0008F938DE191E09F938F930E940C0680E8BA
:1005D0000E9457001F930F9382E291E09F938F93A5
:1005E0000E940C06E0914201F0E0EE0FFF1FEE0FBB
:1005F000FF1F81E090E08C0F9D1FE80FF91FC68C54
:10060000D78CE0A0F1A0B801110F880B990B0E94C4
:10061000EA04A70196010E9487000FB6F894DEBF96
:100620000FBECDBFCE5BDF4F0FB6F894DEBF0FBE5F
:10063000CDBFDF91CF911F910F91FF90EF90DF9091
:10064000CF90089583B78E7F83BF0895CF93DF93B4
:10065000CDB7DEB7E6970FB6F894DEBF0FBECDBFBD
:100660000E9422038EE1EEE6F0E0DE011196019099
:100670000D928A95E1F788E1ECE8F0E0DE015F9603
:1006800001900D928A95E1F70E94620083E80E9432
:1006900057008AE291E09F938F930E940C0680ECB2
:1006A0000E9457008091420190E09C01220F331F6D
:1006B000220F331F820F931F21E030E02C0F3D1FCC
:1006C000820F931F9F938F9385E391E09F938F9366
:1006D0000E940C06E0914201F0E0EE0FFF1FEE0FCA
:1006E000FF1F81E090E08C0F9D1FE80FF91F668DC2
:1006F000778D80A191A10E9414020F900F900F900E
:100700000F900F900F90E6960FB6F894DEBF0FBED5
:10071000CDBFDF91CF9108950E9462008FEF8ABB19
:1007200084BB80E690E090934801809347018299D2
:1007300003C081E0809343010E94AB010E94CD0180
:100740000E94EB0178940E940C020E94380280E61D
:1007500090E0909348018093470180914401882361
:1007600019F0813071F0F9CF80914301811102C0FD
:100770000E94690280914301813079F70E944C0107
:10078000ECCF80914301811102C00E942603809129
:100790004301813011F70E944C01DFCF5058BB2735
:1007A000AA270E94E6030C9460050E94520538F0C7
:1007B0000E94590520F039F49F3F19F426F40C9457
:1007C0004F050EF4E095E7FB0C944905E92F0E94D4
:1007D000710558F3BA17620773078407950720F06D
:1007E00079F4A6F50C9493050EF4E0950B2EBA2F30
:1007F000A02D0B01B90190010C01CA01A001112427
:10080000FF27591B99F0593F50F4503E68F11A16D2
:10081000F040A22F232F342F4427585FF3CF469563
:1008200037952795A795F0405395C9F77EF41F1685
:10083000BA0B620B730B840BBAF09150A1F0FF0F4F
:10084000BB1F661F771F881FC2F70EC0BA0F621F3B
:10085000731F841F48F4879577956795B795F7952B
:100860009E3F08F0B0CF9395880F08F09927EE0FC0
:100870009795879508950E94250508F481E00895CD
:100880000E9454040C9460050E94590558F00E947F
:10089000520540F029F45F3F29F00C9449055111AD
:1008A0000C9494050C944F050E94710568F39923EC
:1008B000B1F3552391F3951B550BBB27AA2762175C
:1008C0007307840738F09F5F5F4F220F331F441F69
:1008D000AA1FA9F335D00E2E3AF0E0E832D091509D
:1008E0005040E695001CCAF72BD0FE2F29D0660F8A
:1008F000771F881FBB1F261737074807AB07B0E8CD
:1009000009F0BB0B802DBF01FF2793585F4F3AF0D2
:100910009E3F510578F00C9449050C9494055F3F77
:10092000E4F3983ED4F3869577956795B795F79558
:100930009F5FC9F7880F911D9695879597F9089540
:10094000E1E0660F771F881FBB1F621773078407DC
:10095000BA0720F0621B730B840BBA0BEE1F88F7EB
:10096000E09508950E94B9046894B1110C9494051F
:1009700008950E94790588F09F5798F0B92F99271C
:10098000B751B0F0E1F0660F771F881F991F1AF07A
:10099000BA95C9F714C0B13091F00E949305B1E047
:1009A00008950C949305672F782F8827B85F39F046
:1009B000B93FCCF3869577956795B395D9F73EF413
:1009C00090958095709561957F4F8F4F9F4F0895BB
:1009D000E89409C097FB3EF49095809570956195D9
:1009E0007F4F8F4F9F4F9923A9F0F92F96E9BB278F
:1009F0009395F695879577956795B795F111F8CF0B
:100A0000FAF4BB0F11F460FF1BC06F5F7F4F8F4F75
:100A10009F4F16C0882311F096E911C0772321F06B
:100A20009EE8872F762F05C0662371F096E8862F03
:100A300070E060E02AF09A95660F771F881FDAF75A
:100A4000880F9695879597F90895990F0008550F87
:100A5000AA0BE0E8FEEF16161706E807F907C0F044
:100A600012161306E407F50798F0621B730B840B4C
:100A7000950B39F40A2661F0232B242B252B21F426
:100A800008950A2609F4A140A6958FEF811D811DC6
:100A9000089597F99F6780E870E060E008959FEF00
:100AA00080EC089500240A94161617061806090605
:100AB000089500240A9412161306140605060895D4
:100AC000092E0394000C11F4882352F0BB0F40F45C
:100AD000BF2B11F460FF04C06F5F7F4F8F4F9F4F9C
:100AE000089557FD9058440F551F59F05F3F71F01E
:100AF0004795880F97FB991F61F09F3F79F0879585
:100B00000895121613061406551FF2CF4695F1DF0D
:100B100008C0161617061806991FF1CF869571059D
:100B2000610508940895E894BB2766277727CB01D1
:100B300097F908950E94250508F48FEF08950E9403
:100B4000B2050C9460050E94520538F00E945905C8
:100B500020F0952311F00C9449050C944F051124B5
:100B60000C9494050E94710570F3959FC1F3950F45
:100B700050E0551F629FF001729FBB27F00DB11D21
:100B8000639FAA27F00DB11DAA1F649F6627B00DB1
:100B9000A11D661F829F2227B00DA11D621F739F9A
:100BA000B00DA11D621F839FA00D611D221F749FA8
:100BB0003327A00D611D231F849F600D211D822FEF
:100BC000762F6A2F11249F5750409AF0F1F0882316
:100BD0004AF0EE0FFF1FBB1F661F771F881F915043
:100BE0005040A9F79E3F510580F00C9449050C94A4
:100BF00094055F3FE4F3983ED4F386957795679527
:100C0000B795F795E7959F5FC1F7FE2B880F911D6C
:100C10009695879597F90895A0E0B0E0E2E1F6E0B7
:100C20000C94CA08AE014B5F5F4FFA01619171915C
:100C3000AF0180914701909148010E942906E2E0AE
:100C40000C94E60860914701709148010E942008C9
:100C50000895ABE0B0E0EFE2F6E00C94BA086C0166
:100C60007B018A01FC0117821682838181FFCCC13E
:100C7000CE0101963C01F6019381F70193FD859128
:100C800093FF81917F01882309F4BAC1853239F439
:100C900093FD859193FF81917F01853229F4B601FF
:100CA00090E00E942008E7CF912C212C312CFFE10D
:100CB000F315D8F08B3279F038F4803279F0833242
:100CC000A1F4232D20611DC08D3261F0803369F4C1
:100CD000232D216016C0832D8260382EE32DE46021
:100CE0003E2E2AC0F32DF8601DC037FC2DC020ED2C
:100CF000280F2A3040F08E32B9F436FC81C1232D02
:100D00002064322E19C036FE06C08AE0989E200D5F
:100D10001124922E11C0EAE02E9E200D1124222EC5
:100D2000F32DF0623F2E08C08C3621F4832D8068AD
:100D3000382E02C0883641F4F70193FD859193FF68
:100D400081917F018111B3CF982F9F7D955493306E
:100D500028F40C5F1F4F9FE399830DC0833631F059
:100D6000833771F0833509F059C021C0F8018081C3
:100D700089830E5F1F4F88248394912C530113C0E5
:100D80002801F2E04F0E511CF801A080B18036FE20
:100D900003C0692D70E002C06FEF7FEFC5010E94B4
:100DA00015084C018201F32DFF773F2E16C0280154
:100DB00022E0420E511CF801A080B18036FE03C033
:100DC000692D70E002C06FEF7FEFC5010E940A0835
:100DD0004C01F32DF0683F2E820133FC1BC0822DA5
:100DE00090E088169906B0F4B60180E290E00E9487
:100DF00020082A94F4CFF50137FC859137FE8191C4
:100E00005F01B60190E00E94200821102A9421E0A1
:100E1000821A91088114910471F7E8C0843611F0A8
:100E2000893641F5F80137FE07C060817181828102
:100E300093810C5F1F4F08C060817181072E000CE9
:100E4000880B990B0E5F1F4FF32DFF763F2E97FFF8
:100E500009C090958095709561957F4F8F4F9F4FFA
:100E6000F0683F2E2AE030E0A3010E945C08882E43
:100E7000861845C0853731F4232D2F7EB22E2AE007
:100E800030E025C0932D997FB92E8F36C1F018F42C
:100E9000883579F0B5C0803719F0883721F0B0C0B7
:100EA000E92FE061BE2EB4FE0DC0FB2DF460BF2E15
:100EB00009C034FE0AC0292F2660B22E06C028E0E1
:100EC00030E005C020E130E002C020E132E0F8016E
:100ED000B7FE07C060817181828193810C5F1F4FD3
:100EE00006C06081718180E090E00E5F1F4FA3011A
:100EF0000E945C08882E8618FB2DFF773F2E36FE59
:100F00000DC0232D2E7FA22E891458F434FE0BC061
:100F100032FC09C0832D8E7EA82E05C0B82CA32CD0
:100F200003C0B82C01C0B92CA4FE0FC0FE01E80D0F
:100F3000F11D8081803321F49A2D997EA92E09C05C
:100F4000A2FE06C0B394B39404C08A2D867809F03B
:100F5000B394A3FC11C0A0FE06C0B21488F4280C00
:100F6000922C9B180EC0B21460F4B60180E290E09F
:100F70000E942008B394F7CFB21418F42B1802C0C3
:100F8000982C212CA4FE10C0B60180E390E00E94B2
:100F90002008A2FE17C0A1FC03C088E790E002C0B1
:100FA00088E590E0B6010CC08A2D867859F0A1FE44
:100FB00002C08BE201C080E2A7FC8DE2B60190E0A6
:100FC0000E942008891438F4B60180E390E00E9462
:100FD00020089A94F7CF8A94F301E80DF11D8081DF
:100FE000B60190E00E9420088110F5CF222009F47C
:100FF00042CEB60180E290E00E9420082A94F6CF0B
:10100000F6018681978102C08FEF9FEF2B96E2E178
:101010000C94D608FC010590615070400110D8F77F
:10102000809590958E0F9F1F0895FC016150704030
:1010300001900110D8F7809590958E0F9F1F08950D
:101040000F931F93CF93DF93FB01238121FD03C0F7
:101050008FEF9FEF2CC022FF16C04681578124815D
:1010600035814217530744F4A081B1819D012F5F60
:101070003F4F318320838C93268137812F5F3F4FF1
:101080003783268314C08B01EC01FB010084F185BA
:10109000E02D0995892BE1F6D80116968D919C914A
:1010A0001797019617969C938E931697CE01DF9112
:1010B000CF911F910F910895FA01AA27283051F17D
:1010C000203181F1E8946F936E7F6E5F7F4F8F4F79
:1010D0009F4FAF4FB1E03ED0B4E03CD0670F781FD8
:1010E000891F9A1FA11D680F791F8A1F911DA11DBD
:1010F0006A0F711D811D911DA11D20D009F46894F6
:101100003F912AE0269F11243019305D3193DEF69D
:10111000CF010895462F4770405D4193B3E00FD053
:10112000C9F7F6CF462F4F70405D4A3318F0495D3E
:1011300031FD4052419302D0A9F7EACFB4E0A69521
:101140009795879577956795BA95C9F70097610543
:10115000710508959B01AC010A2E06945795479599
:1011600037952795BA95C9F7620F731F841F951F8E
:10117000A01D08952F923F924F925F926F927F929F
:101180008F929F92AF92BF92CF92DF92EF92FF9297
:101190000F931F93CF93DF93CDB7DEB7CA1BDB0B43
:1011A0000FB6F894DEBF0FBECDBF09942A883988E8
:1011B00048885F846E847D848C849B84AA84B984EF
:1011C000C884DF80EE80FD800C811B81AA81B981FB
:1011D000CE0FD11D0FB6F894DEBF0FBECDBFED010F
:0611E0000895F894FFCF12
:1011E60000000002000000004900000000004D69F8
:1011F6003300005369320000536F6C32005265327F
:1012060000004C613100004D69310000CDCCA44393
:1012160066E6764300004443CDCC12430000DC4230
:10122600CDCCA4420300020002000100010001002F
:101236004163636F72646575722032303236004FD7
:101246007520737569732D6A65203F002B3E3E003D
:101256002D3C3C006F7C6F004D6F64652044454219
:10126600554700566F6972207465737473202D2D6F
:101276003E00546573747320756E69746169726596
:10128600730044656D6172726572202D3E0054656F
:1012960073747320626172677261706800282573C7
:1012A600290046726571202564004D6F64652053E0
:1012B6004F554E44004E6F7465203A20257300004A
:00000001FF
