:100000000C942A000C94B1010C94D7010C94470075
:100010000C9447000C9447000C9447000C94470044
:100020000C9447000C9447000C9447000C94470034
:100030000C9447000C9447000C9447000C94470024
:100040000C9447000C9447000C940A020C9447004F
:100050000C94470011241FBECFE5D4E0DEBFCDBF16
:1000600011E0A0E6B0E0E6E8F2E102C005900D92F2
:10007000AE34B107D9F721E0AEE4B1E001C01D9282
:10008000A935B207E1F70E9455030C9441090C947D
:10009000000094E095BB95B3916095BB8BBB8EEF50
:1000A00085BB85E38A95F1F781E090E0089515BA64
:1000B00095B3916095BB8BBB8EEF85BB85E38A952D
:1000C000F1F7089527EF8FE191E0215080409040B3
:1000D000E1F700C0000088E30E94570020E32A9562
:1000E000F1F78FE00E94570080E38A95F1F781E0F5
:1000F0000E94570082E397E00197F1F700C00000EB
:1001000086E00E94570090E39A95F1F708958F9248
:100110009F92AF92BF92CF92DF92EF92FF92CF93D6
:10012000DF936B017C0149015A0187EC0E94570063
:1001300080E38A95F1F78CE790E00E947206A501B2
:100140009401C701B6010E941E046B017C0120E0EE
:1001500030E040E05FE30E94EA0518160CF043C06F
:1001600088EC0E94570020E030E040EE50E4C701E8
:10017000B6010E948B0418163CF421C08BE290E07B
:100180000E947206219602C0C0E0D0E0BE010D2E92
:10019000000C880B990B0E943A054B015C0120E092
:1001A00030E040E05FE3C701B6010E941E049B01FE
:1001B000AC01C501B4010E948B048823FCF220E04D
:1001C00030E040EE50E4C701B6010E94EA0518167F
:1001D0000CF057C08CEC90E09F938F930E945C06CC
:1001E0000F900F904EC020E030E040E05FEBC70181
:1001F000B6010E948B048823CCF586EC0E94570040
:1002000084E00E94570020E030E040EE50ECC7014F
:10021000B6010E94EA0588239CF020E030E040E02F
:100220005FE3C701B6010E941E040E940205EB01B4
:1002300005C08DE290E00E9472062196DD23CCF38A
:1002400020E030E040EE50ECC701B6010E948B0484
:10025000882344F480ED90E09F938F930E945C0686
:100260000F900F9086E00E9457000BC086EC0E9412
:10027000570084ED90E09F938F930E945C060F904F
:100280000F90DF91CF91FF90EF90DF90CF90BF90D4
:10029000AF909F908F9008950E94620080915101CD
:1002A000813031F580E80E94570088ED90E09F93FF
:1002B0008F930E945C0683EC0E94570088EE90E0CA
:1002C0009F938F930E945C0680ED0E9457001F92BF
:1002D00082E08F9384EF90E09F938F930E945C065F
:1002E0008DB79EB708960FB6F8949EBF0FBE8DBF10
:1002F00080915101823051F580E80E94570089EFCA
:1003000090E09F938F930E945C0683EC0E945700BD
:1003100088EE90E09F938F930E945C0680ED0E9490
:10032000570082E390E00E9472061F9282E08F9352
:1003300084EF90E09F938F930E945C068DB79EB7E9
:1003400008960FB6F8949EBF0FBE8DBF089581B377
:100350008B7F81BB8BB780648BBF85B7826085BF85
:1003600008951F920F920FB60F9211248F938091D0
:100370005201823061F080915001853030F48091DB
:1003800050018F5F8093500102C0109250018F91F5
:100390000F900FBE0F901F90189581B3877F81BB80
:1003A0008BB780688BBF85B7886085BF08951F9223
:1003B0000F920FB60F9211248F939F938091520149
:1003C000823031F09091520181E0891B809352017B
:1003D00080915201823069F480915101833020F084
:1003E00081E08093510105C0809151018F5F80931E
:1003F00051019F918F910F900FBE0F901F901895F4
:1004000087B38B7F87BB8BB780628BBF84B78064D9
:1004100084BF08951F920F920FB60F9211248F93ED
:100420009F9380914E0190914F01019690934F01BF
:1004300080934E019F918F910F900FBE0F901F9050
:10044000189581B3806281BB88E08EBD80E48FBD4A
:1004500008952EB522602EBD9B01AC010E941F04A1
:100460009B01AC0160EC79EF80E69AE40E94900475
:1004700020E030E040E85FE30E941E0420E030E02E
:1004800040E05FE30E941F040E9409057BBD6ABD36
:1004900008958EB58D7F8EBD089587B3886087BB24
:1004A00089E183BF089523B7216023BF9B01AC017D
:1004B0000E941F049B01AC0160E070E081E69AE4B9
:1004C0000E94900420E030E040E85FE30E941E04B8
:1004D00020E030E040E05FE30E941F0420E030E0D5
:1004E00040EC5FE30E94EF0520E030E048EC52E48E
:1004F0000E94EF050E9409056CBF0895CF92DF921C
:10050000EF92FF920F931F93CF93DF93CDB7DEB798
:100510002C970FB6F894DEBF0FBECDBF0E944902E4
:100520008CE0E4EAF0E0DE01119601900D928A95EC
:10053000E1F7E0915001F0E0EE0FFF1FEE0FFF1F1B
:10054000E05AFF4F60817181828193810E94530242
:1005500010924F0110924E012FEA8FE39BE0215041
:1005600080409040E1F700C0000000914E011091E2
:100570004F01E0915001F0E0EE0FFF1F81E090E0AD
:100580008C0F9D1FE80FF91F80819181081B190BAB
:100590000E9462008AE80E9457008091500190E01A
:1005A0009C01220F331F220F331F820F931F885885
:1005B0009F4F9F938F9388E091E09F938F930E942A
:1005C0005C0680E80E9457001F930F938DE091E036
:1005D0009F938F930E945C06E0915001F0E0EE0F34
:1005E000FF1FEE0FFF1FE05AFF4FC080D180E28057
:1005F000F380B801110F880B990B0E943A05A701EF
:1006000096010E9487000FB6F894DEBF0FBECDBFE3
:100610002C960FB6F894DEBF0FBECDBFDF91CF9101
:100620001F910F91FF90EF90DF90CF90089583B7C7
:100630008E7F83BF08950E9417030E94620083E8A3
:100640000E94570085E191E09F938F930E945C0682
:1006500080EC0E9457008091500190E09C01220F95
:10066000331F220F331F820F931F88589F4F9F9372
:100670008F9380E291E09F938F930E945C06E091BC
:100680005001F0E0EE0FFF1FEE0FFF1FE05AFF4F8B
:1006900060817181828193810E9429020F900F9065
:1006A0000F900F900F900F9008950E9462008FEFAF
:1006B0008ABB84BBC3E5D1E006E910E01B830A8353
:1006C0000E94A7010E94CD010E94000278940E941E
:1006D00021020E944D021B830A8381E00E94570081
:1006E00027EF8FE191E0215080409040E1F700C07A
:1006F000000082E00E94570027EF8FE191E0215037
:1007000080409040E1F700C0000083E80E9457005D
:100710008AE291E09F938F930E945C062FEA8FE319
:100720009BE0215080409040E1F700C000000F9016
:100730000F90C0E0D0E046C085EC0E9457008EE2EA
:1007400090E00E94720627EE8FE593E021508040F2
:100750009040E1F700C0000085EC0E94570080E265
:1007600090E00E94720687EC0E9457008EE290E0B3
:100770000E94720627EE8FE593E021508040904062
:10078000E1F700C0000087EC0E94570080E290E093
:100790000E94720689EC0E9457008EE290E00E944F
:1007A000720627EE8FE593E0215080409040E1F7FC
:1007B00000C0000089EC0E94570080E290E00E9497
:1007C00072062196C330D1050CF4B6CF829919C0B8
:1007D00082E08093520183E80E94570084E391E015
:1007E0009F938F930E945C0680EC0E9457008FE3DA
:1007F00091E09F938F930E945C060F900F900F9053
:100800000F9080915201813059F018F0823079F0C8
:10081000F8CF809152018230A1F30E947E02F1CF85
:1008200080915201823069F30E941B03EACF8091CC
:100830005101882331F30E944C01E3CF5058BB276C
:10084000AA270E9436040C94B0050E94A20538F035
:100850000E94A90520F039F49F3F19F426F40C9466
:100860009F050EF4E095E7FB0C949905E92F0E9493
:10087000C10558F3BA17620773078407950720F07C
:1008800079F4A6F50C94E3050EF4E0950B2EBA2F3F
:10089000A02D0B01B90190010C01CA01A001112486
:1008A000FF27591B99F0593F50F4503E68F11A1632
:1008B000F040A22F232F342F4427585FF3CF4695C3
:1008C00037952795A795F0405395C9F77EF41F16E5
:1008D000BA0B620B730B840BBAF09150A1F0FF0FAF
:1008E000BB1F661F771F881FC2F70EC0BA0F621F9B
:1008F000731F841F48F4879577956795B795F7958B
:100900009E3F08F0B0CF9395880F08F09927EE0F1F
:100910009795879508950E94750508F481E00895DC
:100920000E94A4040C94B0050E94A90558F00E94EE
:10093000A20540F029F45F3F29F00C94990551116C
:100940000C94E4050C949F050E94C10568F399235B
:10095000B1F3552391F3951B550BBB27AA276217BB
:100960007307840738F09F5F5F4F220F331F441FC8
:10097000AA1FA9F335D00E2E3AF0E0E832D09150FC
:100980005040E695001CCAF72BD0FE2F29D0660FE9
:10099000771F881FBB1F261737074807AB07B0E82C
:1009A00009F0BB0B802DBF01FF2793585F4F3AF032
:1009B0009E3F510578F00C9499050C94E4055F3F37
:1009C000E4F3983ED4F3869577956795B795F795B8
:1009D0009F5FC9F7880F911D9695879597F90895A0
:1009E000E1E0660F771F881FBB1F6217730784073C
:1009F000BA0720F0621B730B840BBA0BEE1F88F74B
:100A0000E09508950E9409056894B1110C94E405DD
:100A100008950E94C90588F09F5798F0B92F99272B
:100A2000B751B0F0E1F0660F771F881F991F1AF0D9
:100A3000BA95C9F714C0B13091F00E94E305B1E056
:100A400008950C94E305672F782F8827B85F39F055
:100A5000B93FCCF3869577956795B395D9F73EF472
:100A600090958095709561957F4F8F4F9F4F08951A
:100A7000E89409C097FB3EF4909580957095619538
:100A80007F4F8F4F9F4F9923A9F0F92F96E9BB27EE
:100A90009395F695879577956795B795F111F8CF6A
:100AA000FAF4BB0F11F460FF1BC06F5F7F4F8F4FD5
:100AB0009F4F16C0882311F096E911C0772321F0CB
:100AC0009EE8872F762F05C0662371F096E8862F63
:100AD00070E060E02AF09A95660F771F881FDAF7BA
:100AE000880F9695879597F90895990F0008550FE7
:100AF000AA0BE0E8FEEF16161706E807F907C0F0A4
:100B000012161306E407F50798F0621B730B840BAB
:100B1000950B39F40A2661F0232B242B252B21F485
:100B200008950A2609F4A140A6958FEF811D811D25
:100B3000089597F99F6780E870E060E008959FEF5F
:100B400080EC089500240A94161617061806090664
:100B5000089500240A941216130614060506089533
:100B6000092E0394000C11F4882352F0BB0F40F4BB
:100B7000BF2B11F460FF04C06F5F7F4F8F4F9F4FFB
:100B8000089557FD9058440F551F59F05F3F71F07D
:100B90004795880F97FB991F61F09F3F79F08795E4
:100BA0000895121613061406551FF2CF4695F1DF6D
:100BB00008C0161617061806991FF1CF86957105FD
:100BC000610508940895E894BB2766277727CB0131
:100BD00097F908950E94750508F48FEF08950E9413
:100BE00002060C94B0050E94A20538F00E94A905E7
:100BF00020F0952311F00C9499050C949F05112475
:100C00000C94E4050E94C10570F3959FC1F3950F04
:100C100050E0551F629FF001729FBB27F00DB11D80
:100C2000639FAA27F00DB11DAA1F649F6627B00D10
:100C3000A11D661F829F2227B00DA11D621F739FF9
:100C4000B00DA11D621F839FA00D611D221F749F07
:100C50003327A00D611D231F849F600D211D822F4E
:100C6000762F6A2F11249F5750409AF0F1F0882375
:100C70004AF0EE0FFF1FBB1F661F771F881F9150A2
:100C80005040A9F79E3F510580F00C9499050C94B3
:100C9000E4055F3FE4F3983ED4F386957795679536
:100CA000B795F795E7959F5FC1F7FE2B880F911DCC
:100CB0009695879597F90895A0E0B0E0E2E6F6E012
:100CC0000C941A09AE014B5F5F4FFA01619171916B
:100CD000AF0180915501909156010E947906E2E0A2
:100CE0000C94360960915501709156010E9470086C
:100CF0000895ABE0B0E0EFE7F6E00C940A096C0170
:100D00007B018A01FC0117821682838181FFCCC19D
:100D1000CE0101963C01F6019381F70193FD859187
:100D200093FF81917F01882309F4BAC1853239F498
:100D300093FD859193FF81917F01853229F4B6015E
:100D400090E00E947008E7CF912C212C312CFFE11C
:100D5000F315D8F08B3279F038F4803279F08332A1
:100D6000A1F4232D20611DC08D3261F0803369F420
:100D7000232D216016C0832D8260382EE32DE46080
:100D80003E2E2AC0F32DF8601DC037FC2DC020ED8B
:100D9000280F2A3040F08E32B9F436FC81C1232D61
:100DA0002064322E19C036FE06C08AE0989E200DBF
:100DB0001124922E11C0EAE02E9E200D1124222E25
:100DC000F32DF0623F2E08C08C3621F4832D80680D
:100DD000382E02C0883641F4F70193FD859193FFC8
:100DE00081917F018111B3CF982F9F7D95549330CE
:100DF00028F40C5F1F4F9FE399830DC0833631F0B9
:100E0000833771F0833509F059C021C0F801808122
:100E100089830E5F1F4F88248394912C530113C044
:100E20002801F2E04F0E511CF801A080B18036FE7F
:100E300003C0692D70E002C06FEF7FEFC5010E9413
:100E400065084C018201F32DFF773F2E16C0280163
:100E500022E0420E511CF801A080B18036FE03C092
:100E6000692D70E002C06FEF7FEFC5010E945A0844
:100E70004C01F32DF0683F2E820133FC1BC0822D04
:100E800090E088169906B0F4B60180E290E00E94E6
:100E900070082A94F4CFF50137FC859137FE8191D3
:100EA0005F01B60190E00E94700821102A9421E0B1
:100EB000821A91088114910471F7E8C0843611F008
:100EC000893641F5F80137FE07C060817181828162
:100ED00093810C5F1F4F08C060817181072E000C49
:100EE000880B990B0E5F1F4FF32DFF763F2E97FF58
:100EF00009C090958095709561957F4F8F4F9F4F5A
:100F0000F0683F2E2AE030E0A3010E94AC08882E52
:100F1000861845C0853731F4232D2F7EB22E2AE066
:100F200030E025C0932D997FB92E8F36C1F018F48B
:100F3000883579F0B5C0803719F0883721F0B0C016
:100F4000E92FE061BE2EB4FE0DC0FB2DF460BF2E74
:100F500009C034FE0AC0292F2660B22E06C028E040
:100F600030E005C020E130E002C020E132E0F801CD
:100F7000B7FE07C060817181828193810C5F1F4F32
:100F800006C06081718180E090E00E5F1F4FA30179
:100F90000E94AC08882E8618FB2DFF773F2E36FE68
:100FA0000DC0232D2E7FA22E891458F434FE0BC0C1
:100FB00032FC09C0832D8E7EA82E05C0B82CA32C30
:100FC00003C0B82C01C0B92CA4FE0FC0FE01E80D6F
:100FD000F11D8081803321F49A2D997EA92E09C0BC
:100FE000A2FE06C0B394B39404C08A2D867809F09B
:100FF000B394A3FC11C0A0FE06C0B21488F4280C60
:10100000922C9B180EC0B21460F4B60180E290E0FE
:101010000E947008B394F7CFB21418F42B1802C0D2
:10102000982C212CA4FE10C0B60180E390E00E9411
:101030007008A2FE17C0A1FC03C088E790E002C0C0
:1010400088E590E0B6010CC08A2D867859F0A1FEA3
:1010500002C08BE201C080E2A7FC8DE2B60190E005
:101060000E947008891438F4B60180E390E00E9471
:1010700070089A94F7CF8A94F301E80DF11D8081EE
:10108000B60190E00E9470088110F5CF222009F48B
:1010900042CEB60180E290E00E9470082A94F6CF1A
:1010A000F6018681978102C08FEF9FEF2B96E2E1D8
:1010B0000C942609FC010590615070400110D8F78E
:1010C000809590958E0F9F1F0895FC016150704090
:1010D00001900110D8F7809590958E0F9F1F08956D
:1010E0000F931F93CF93DF93FB01238121FD03C057
:1010F0008FEF9FEF2CC022FF16C0468157812481BD
:1011000035814217530744F4A081B1819D012F5FBF
:101110003F4F318320838C93268137812F5F3F4F50
:101120003783268314C08B01EC01FB010084F18519
:10113000E02D0995892BE1F6D80116968D919C91A9
:101140001797019617969C938E931697CE01DF9171
:10115000CF911F910F910895FA01AA27283051F1DC
:10116000203181F1E8946F936E7F6E5F7F4F8F4FD8
:101170009F4FAF4FB1E03ED0B4E03CD0670F781F37
:10118000891F9A1FA11D680F791F8A1F911DA11D1C
:101190006A0F711D811D911DA11D20D009F4689455
:1011A0003F912AE0269F11243019305D3193DEF6FD
:1011B000CF010895462F4770405D4193B3E00FD0B3
:1011C000C9F7F6CF462F4F70405D4A3318F0495D9E
:1011D00031FD4052419302D0A9F7EACFB4E0A69581
:1011E0009795879577956795BA95C9F700976105A3
:1011F000710508959B01AC010A2E069457954795F9
:1012000037952795BA95C9F7620F731F841F951FED
:10121000A01D08952F923F924F925F926F927F92FE
:101220008F929F92AF92BF92CF92DF92EF92FF92F6
:101230000F931F93CF93DF93CDB7DEB7CA1BDB0BA2
:101240000FB6F894DEBF0FBECDBF09942A88398847
:1012500048885F846E847D848C849B84AA84B9844E
:10126000C884DF80EE80FD800C811B81AA81B9815A
:10127000CE0FD11D0FB6F894DEBF0FBECDBFED016E
:061280000895F894FFCF71
:10128600CDCCA44366E6764300004443CDCC12435E
:101296000000DC42CDCCA4424D69330000536932D4
:1012A6000000536F6C320052653200004C61310011
:1012B600004D6931000000000002000000004900F6
:1012C600000000000300020002000100010001000E
:1012D6004163636F72646575722032303236004F37
:1012E6007520737569732D6A65203F002B3E3E009D
:1012F6002D3C3C006F7C6F00546573747320756ED3
:10130600697461697265730044656D6172726572B4
:10131600202D3E00312F25640054657374732062BE
:1013260061726772617068002825732900467265CC
:1013360071202564004D6F646520534F554E44005F
:101346004E6F7465203A202573004163636F7264A3
:10135600657572004D6F64652044454255470056D9
:0E1366006F6972207465737473202D2D3E0024
:00000001FF
