S01B0000502D4163635F504F52542D4449414C2D5450322E7372656397
S11300000C942A000C94B5020C940B030C94470036
S11300100C9447000C9447000C9447000C94470040
S11300200C9447000C9447000C9447000C94470030
S11300300C9447000C9447000C9447000C94470020
S11300400C9447000C9447000C9447000C94470010
S11300500C94470011241FBECFE5D4E0DEBFCDBF12
S113006011E0A0E6B0E0EAE1FFE002C005900D92E5
S1130070A433B107D9F721E0A4E3B1E001C01D9294
S1130080AD33B207E1F70E94C1010C948B070C94C5
S1130090000094E095BBA89A8BBB8EEF85BB85E3EB
S11300A08A95F1F781E090E0089515BAA89A8BBB80
S11300B08EEF85BB85E38A95F1F7089527EF8FE1ED
S11300C091E0215080409040E1F700C0000088E3B7
S11300D00E94550020E32A95F1F78FE00E94550015
S11300E080E38A95F1F781E00E94550082E397E06E
S11300F00197F1F700C0000086E00E94550090E3EC
S11301009A95F1F708958F929F92AF92BF92CF92F2
S1130110DF92EF92FF92CF93DF936B017C01490151
S11301205A0187EC0E94550080E38A95F1F78CE729
S113013090E00E94BC04A5019401C701B6010E948D
S113014047036B017C0120E030E040E05FE30E9464
S1130150A10418160CF03DC088EC0E94550020E064
S113016030E040EE50E4C701B6010E94B403181613
S11301701CF0C0E0D0E00EC020E030E040EE50E4DF
S1130180C701B6010E94A10418160CF07AC080ECD5
S113019090E071C0BE010D2E000C880B990B0E94DB
S11301A0F1034B015C0120E030E040E05FE3C70174
S11301B0B6010E9447039B01AC01C501B4010E9432
S11301C0B40387FFD9CF8BE290E00E94BC04219650
S11301D0E1CF20E030E040E05FEBC701B6010E94D0
S11301E0B40387FF43C086EC0E94550084E00E945C
S11301F0550020E030E040EE50ECC701B6010E940B
S1130200A10487FF13C020E030E040EE50ECC701AA
S1130210B6010E94B40387FF1CC084EC90E09F9356
S11302208F930E94A6040F900F9013C020E030E03B
S113023040E05FE3C701B6010E9447030E94B9038F
S1130240EB01D7FFE0CF8DE290E00E94BC04219641
S1130250F8CF86E0DF91CF91FF90EF90DF90CF90C1
S1130260BF90AF909F908F900C94550086EC0E94A5
S1130270550088EC90E09F938F930E94A6040F9002
S11302800F90DF91CF91FF90EF90DF90CF90BF90D0
S1130290AF909F908F9008950E945E0080913501E9
S11302A08130B1F483E80E9455008CEC90E09F9378
S11302B08F930E94A60480EC0E94550087ED90E085
S11302C09F938F930E94A6040F900F900F900F900E
S11302D0809135018230E9F480E80E94550086EE71
S11302E090E09F938F930E94A60483EC0E94550094
S11302F086EF90E09F938F930E94A60480ED0E9466
S1130300550081E390E00E94BC040F900F900F9081
S11303100F90809135018330E9F480E80E94550004
S113032082E091E09F938F930E94A60483EC0E9445
S1130330550086EF90E09F938F930E94A60480ED72
S11303400E9455000F900F900F900F9082E390E061
S11303500C94BC0408958A988BB780648BBF85B7CE
S1130360826085BF08958A988BB780688BBF85B7F4
S1130370886085BF08958D9A80E48FBD88E08EBD26
S113038008950E945E008FEF8ABB84BB80B30E94F5
S1130390AB010E94B30178940E94BB0180E690E017
S11303A090933A0180933901FFCF8EB581608EBD61
S11303B08CEA98E59BBD8ABD0895CF93DF93CDB7B2
S11303C0DEB7E6970FB6F894DEBF0FBECDBF8EE161
S11303D0EEE6F0E0DE01119601900D928A95E1F7C8
S11303E088E1ECE8F0E0DE015F9601900D928A95D9
S11303F0E1F70E945E0083E80E94550081E191E0EC
S11304009F938F930E94A60480EC0E9455008091D4
S1130410340121E030E02C0F3D1F45E0849F200D86
S1130420311D1124C9019F932F938CE191E09F9377
S11304308F930E94A60480913401E1E0F0E0EC0F78
S1130440FD1F94E0899FE00DF11D1124668D778DC9
S113045080A191A10E94D5010F900F900F900F9051
S11304600F900F90E6960FB6F894DEBF0FBECDBF87
S1130470DF91CF9108958EB58E7F8EBD0895CF9371
S1130480DF93CDB7DEB7E6970FB6F894DEBF0FBEA5
S1130490CDBF0E943B028EE1EEE6F0E0DE01119654
S11304A001900D928A95E1F788E1ECE8F0E0DE0135
S11304B05F9601900D928A95E1F70E945E008AE8AA
S11304C00E9455008091340121E030E02C0F3D1F43
S11304D045E0849F200D311D1124C9019F932F9362
S11304E086E291E09F938F930E94A60480E80E9485
S11304F0550080913401E1E0F0E0EC0FFD1F94E041
S1130500899FE00DF11D1124668D778D80A191A145
S11305100E94B9037F936F938BE291E09F938F9333
S11305200E94A60480913401E1E0F0E0EC0FFD1F8D
S113053024E0829FE00DF11D1124268D378D40A10A
S113054051A160E070E884EA93E40E9483000FB64E
S1130550F894DEBF0FBECDBFE6960FB6F894DEBFAB
S11305600FBECDBFDF91CF9108951F920F920FB6AA
S11305700F9211242F933F934F935F936F937F9325
S11305808F939F93AF93BF93EF93FF938091350124
S11305908130A1F480913501813021F080913501C1
S11305A0833019F482E080933501809135018230E3
S11305B019F483E0809335010E944C018091350148
S11305C0811118C080913401853030F48091340158
S11305D08F5F8093340102C0109234018091360100
S11305E0811102C00E943F0280913601813011F4D2
S11305F00E94DD01FF91EF91BF91AF919F918F9187
S11306007F916F915F914F913F912F910F900FBE0A
S11306100F901F9018951F920F920FB60F921124EE
S11306202F933F934F935F936F937F938F939F93F6
S1130630AF93BF93EF93FF939091360181E0891BB1
S11306408093360180913601811106C08091350175
S1130650811102C00E943F0280913601813031F441
S113066080913501811102C00E94DD01FF91EF915B
S1130670BF91AF919F918F917F916F915F914F91B6
S11306803F912F910F900FBE0F901F9018955058C7
S1130690BB27AA270E945F030C9467040E94590495
S11306A038F00E94600420F039F49F3F19F426F4D6
S11306B00C9456040EF4E095E7FB0C945004E92FD7
S11306C00E94780458F3BA176207730784079507E2
S11306D020F079F4A6F50C949A040EF4E0950B2E10
S11306E0BA2FA02D0B01B90190010C01CA01A00180
S11306F01124FF27591B99F0593F50F4503E68F1DB
S11307001A16F040A22F232F342F4427585FF3CF1B
S1130710469537952795A795F0405395C9F77EF4EC
S11307201F16BA0B620B730B840BBAF09150A1F035
S1130730FF0FBB1F661F771F881FC2F70EC0BA0FBB
S1130740621F731F841F48F4879577956795B79543
S1130750F7959E3F08F0B0CF9395880F08F099273E
S1130760EE0F9795879508950E942C0408F481E074
S113077008950E94C0036894B1110C949B040895D9
S11307800E94800488F09F5798F0B92F9927B75199
S1130790B0F0E1F0660F771F881F991F1AF0BA9521
S11307A0C9F714C0B13091F00E949A04B1E00895E1
S11307B00C949A04672F782F8827B85F39F0B93FD3
S11307C0CCF3869577956795B395D9F73EF49095D4
S11307D08095709561957F4F8F4F9F4F0895E89452
S11307E009C097FB3EF490958095709561957F4F75
S11307F08F4F9F4F9923A9F0F92F96E9BB27939523
S1130800F695879577956795B795F111F8CFFAF432
S1130810BB0F11F460FF1BC06F5F7F4F8F4F9F4F63
S113082016C0882311F096E911C0772321F09EE8C1
S1130830872F762F05C0662371F096E8862F70E027
S113084060E02AF09A95660F771F881FDAF7880F01
S11308509695879597F90895990F0008550FAA0B57
S1130860E0E8FEEF16161706E807F907C0F01216BF
S11308701306E407F50798F0621B730B840B950BC2
S113088039F40A2661F0232B242B252B21F4089517
S11308900A2609F4A140A6958FEF811D811D0895B4
S11308A097F99F6780E870E060E008959FEF80EC1F
S11308B0089500240A9416161706180609060895C2
S11308C000240A9412161306140605060895092E28
S11308D00394000C11F4882352F0BB0F40F4BF2B97
S11308E011F460FF04C06F5F7F4F8F4F9F4F0895D7
S11308F057FD9058440F551F59F05F3F71F04795CD
S1130900880F97FB991F61F09F3F79F087950895B1
S1130910121613061406551FF2CF4695F1DF08C0D0
S1130920161617061806991FF1CF869571056105ED
S113093008940895E894BB2766277727CB0197F995
S113094008950E942C0408F48FEF0895A0E0B0E00D
S1130950ECEAF4E00C946407AE014B5F5F4FFA01DC
S113096061917191AF018091390190913A010E9496
S1130970C304E2E00C9480076091390170913A015C
S11309800E94BA060895ABE0B0E0E9ECF4E00C9400
S113099054076C017B018A01FC0117821682838152
S11309A081FFCCC1CE0101963C01F6019381F70190
S11309B093FD859193FF81917F01882309F4BAC146
S11309C0853239F493FD859193FF81917F018532BE
S11309D029F4B60190E00E94BA06E7CF912C212CAD
S11309E0312CFFE1F315D8F08B3279F038F48032F2
S11309F079F08332A1F4232D20611DC08D3261F082
S1130A00803369F4232D216016C0832D8260382E33
S1130A10E32DE4603E2E2AC0F32DF8601DC037FCA0
S1130A202DC020ED280F2A3040F08E32B9F436FC68
S1130A3081C1232D2064322E19C036FE06C08AE0FF
S1130A40989E200D1124922E11C0EAE02E9E200DB6
S1130A501124222EF32DF0623F2E08C08C3621F48F
S1130A60832D8068382E02C0883641F4F70193FD47
S1130A70859193FF81917F018111B3CF982F9F7D41
S1130A809554933028F40C5F1F4F9FE399830DC056
S1130A90833631F0833771F0833509F059C021C0B2
S1130AA0F801808189830E5F1F4F88248394912CE1
S1130AB0530113C02801F2E04F0E511CF801A0802D
S1130AC0B18036FE03C0692D70E002C06FEF7FEF86
S1130AD0C5010E94AF064C018201F32DFF773F2E22
S1130AE016C0280122E0420E511CF801A080B180FA
S1130AF036FE03C0692D70E002C06FEF7FEFC501C1
S1130B000E94A4064C01F32DF0683F2E820133FCB1
S1130B101BC0822D90E088169906B0F4B60180E2DD
S1130B2090E00E94BA062A94F4CFF50137FC85912F
S1130B3037FE81915F01B60190E00E94BA06211050
S1130B402A9421E0821A91088114910471F7E8C073
S1130B50843611F0893641F5F80137FE07C060810B
S1130B607181828193810C5F1F4F08C06081718104
S1130B70072E000C880B990B0E5F1F4FF32DFF7689
S1130B803F2E97FF09C090958095709561957F4F92
S1130B908F4F9F4FF0683F2E2AE030E0A3010E9460
S1130BA0F606882E861845C0853731F4232D2F7E0E
S1130BB0B22E2AE030E025C0932D997FB92E8F36CE
S1130BC0C1F018F4883579F0B5C0803719F088374A
S1130BD021F0B0C0E92FE061BE2EB4FE0DC0FB2DA4
S1130BE0F460BF2E09C034FE0AC0292F2660B22E3D
S1130BF006C028E030E005C020E130E002C020E17A
S1130C0032E0F801B7FE07C060817181828193816F
S1130C100C5F1F4F06C06081718180E090E00E5F21
S1130C201F4FA3010E94F606882E8618FB2DFF771E
S1130C303F2E36FE0DC0232D2E7FA22E891458F48C
S1130C4034FE0BC032FC09C0832D8E7EA82E05C055
S1130C50B82CA32C03C0B82C01C0B92CA4FE0FC01F
S1130C60FE01E80DF11D8081803321F49A2D997ED7
S1130C70A92E09C0A2FE06C0B394B39404C08A2D61
S1130C80867809F0B394A3FC11C0A0FE06C0B21488
S1130C9088F4280C922C9B180EC0B21460F4B60190
S1130CA080E290E00E94BA06B394F7CFB21418F42D
S1130CB02B1802C0982C212CA4FE10C0B60180E38E
S1130CC090E00E94BA06A2FE17C0A1FC03C088E708
S1130CD090E002C088E590E0B6010CC08A2D8678C9
S1130CE059F0A1FE02C08BE201C080E2A7FC8DE2B4
S1130CF0B60190E00E94BA06891438F4B60180E384
S1130D0090E00E94BA069A94F7CF8A94F301E80D12
S1130D10F11D8081B60190E00E94BA068110F5CFE2
S1130D20222009F442CEB60180E290E00E94BA0685
S1130D302A94F6CFF6018681978102C08FEF9FEF48
S1130D402B96E2E10C947007FC0105906150704011
S1130D500110D8F7809590958E0F9F1F0895FC0180
S1130D606150704001900110D8F7809590958E0FD6
S1130D709F1F08950F931F93CF93DF93FB0123814C
S1130D8021FD03C08FEF9FEF2CC022FF16C04681C8
S1130D905781248135814217530744F4A081B181DE
S1130DA09D012F5F3F4F318320838C9326813781B0
S1130DB02F5F3F4F3783268314C08B01EC01FB0167
S1130DC00084F185E02D0995892BE1F6D80116966A
S1130DD08D919C911797019617969C938E931697D5
S1130DE0CE01DF91CF911F910F910895FA01AA27A7
S1130DF0283051F1203181F1E8946F936E7F6E5F5A
S1130E007F4F8F4F9F4FAF4FB1E03ED0B4E03CD007
S1130E10670F781F891F9A1FA11D680F791F8A1FEA
S1130E20911DA11D6A0F711D811D911DA11D20D051
S1130E3009F468943F912AE0269F11243019305D0B
S1130E403193DEF6CF010895462F4770405D4193FC
S1130E50B3E00FD0C9F7F6CF462F4F70405D4A3349
S1130E6018F0495D31FD4052419302D0A9F7EACF11
S1130E70B4E0A6959795879577956795BA95C9F740
S1130E8000976105710508959B01AC010A2E069433
S1130E905795479537952795BA95C9F7620F731FEC
S1130EA0841F951FA01D08952F923F924F925F9229
S1130EB06F927F928F929F92AF92BF92CF92DF9266
S1130EC0EF92FF920F931F93CF93DF93CDB7DEB7CB
S1130ED0CA1BDB0B0FB6F894DEBF0FBECDBF09945F
S1130EE02A88398848885F846E847D848C849B84B6
S1130EF0AA84B984C884DF80EE80FD800C811B81C4
S1130F00AA81B981CE0FD11D0FB6F894DEBF0FBEF2
S10D0F10CDBFED010895F894FFCF62
S1130F1A00000002000000004900000000004D69C2
S1130F2A3300005369320000536F6C320052653249
S1130F3A00004C613100004D69310000CDCCA4435E
S1130F4A66E6764300004443CDCC12430000DC42FB
S1130F5ACDCCA4424163636F7264657572203230EA
S1130F6A3236004F7520737569732D6A65203F0008
S1130F7A2B3E3E002D3C3C006F7C6F004D6F646538
S1130F8A20444542554700566F697220746573744C
S1130F9A73202D2D3E00546573747320756E697425
S1130FAA61697265730044656D6172726572202DA0
S1130FBA3E0054657374732062617267726170686B
S1130FCA004D6F646520534F554E44004E6F74654F
S1130FDA203A20257300282573290046726571205A
S1070FEA2564000076
S9030000FC
