:100000000C942A000C9434000C9434000C943400AA
:100010000C9434000C9434000C9434000C94340090
:100020000C9434000C9434000C9434000C94340080
:100030000C9434000C9434000C9434000C94340070
:100040000C9434000C9434000C9434000C94340060
:100050000C94340011241FBECFE5D4E0DEBFCDBF29
:100060000E946B000C9475000C94000015BAA89ABD
:100070008BBB8EEF85BB85E38A95F1F708958CEFF6
:100080009BE60197F1F700C0000080EB0E9436006C
:1000900090E39A95F1F78FE00E94360080E38A950D
:1000A000F1F781E00E94360082E397E00197F1F7D3
:1000B00000C0000086E00E94360090E39A95F1F7B8
:1000C000089594E095BBA89A8BBB8EEF85BB85E322
:1000D0008A95F1F708958FEF8ABB84BB0E943F0099
:0E00E00081E490E00E946100FFCFF894FFCF12
:00000001FF
